:100000000C942A000C943C000C943C000C943C0092
:100010000C94120D0C94470D0C943C000C943C0075
:100020000C943C000C943C000C94AA0A0C94DF0A3B
:100030000C943C000C943C000C943C000C943C0050
:100040000C943C000C943C000C943C000C943C0040
:100050000C943C0011241FBECFE5D8E0DEBFCDBF1D
:1000600020E0A0E6B0E001C01D92AB36B207E1F798
:100070000E947C0D0C9428110C940000CF93DF9308
:10008000CDB7DEB741E060E080E00E943E0643E08D
:1000900062E080E00E943E060000DF91CF9108956B
:1000A000CF93DF93CDB7DEB741E060E080E00E9400
:1000B000240643E062E080E00E9424060000DF9115
:1000C000CF910895CF93DF93CDB7DEB743E062E0E1
:1000D00080E00E943E0641E060E080E00E94580619
:1000E0000000DF91CF910895CF93DF93CDB7DEB7B6
:1000F00041E060E080E00E943E0643E062E080E094
:100100000E9458060000DF91CF910895CF93DF93AE
:10011000CDB7DEB741E060E080E00E94580643E0E2
:1001200062E080E00E9458060000DF91CF910895C0
:10013000CF93DF931F92CDB7DEB71982CE01019620
:10014000AC0164E080E00E943C0889810F90DF915F
:10015000CF910895CF93DF931F92CDB7DEB7198269
:10016000CE010196AC0165E080E00E943C088981E7
:100170000F90DF91CF910895CF93DF93CDB7DEB786
:100180002E970FB6F894DEBF0FBECDBF0E94980029
:10019000823039F40E94AA00823019F40E943E0095
:1001A0009AC00E949800823039F40E94AA008330DD
:1001B00019F40E9474008FC00E949800833039F4B3
:1001C0000E94AA00823019F40E94620084C00E943A
:1001D0009800833009F07FC00E94AA00833009F0A4
:1001E0007AC00E94860080E090E0AAEFB3E48983A1
:1001F0009A83AB83BC8320E030E04AEF54E469810A
:100200007A818B819C810E94BB10DC01CB018D83A4
:100210009E83AF83B88720E030E040E85FE36D81E4
:100220007E818F8198850E945E0F88232CF481E067
:1002300090E09A8789873FC020E03FEF4FE757E47F
:100240006D817E818F8198850E94B61018164CF5BD
:1002500020E030E040E251E469817A818B819C8129
:100260000E94BB10DC01CB01BC01CD010E94D50F67
:10027000DC01CB019A8789870FC088EC90E09C87CE
:100280008B878B859C850197F1F79C878B87898568
:100290009A8501979A87898789859A85892B69F735
:1002A00014C06D817E818F8198850E94D50FDC01FD
:1002B000CB019A87898789859A859E878D878D85C9
:1002C0009E850197F1F79E878D870E948F0381E0BD
:1002D0008093600000C000002E960FB6F894DEBF39
:1002E0000FBECDBFDF91CF910895CF93DF93CDB7F0
:1002F000DEB76C970FB6F894DEBF0FBECDBF0E947D
:10030000620080E090E0AAE7B3E489839A83AB833C
:10031000BC8320E030E04AEF54E469817A818B812C
:100320009C810E94BB10DC01CB018D839E83AF8337
:10033000B88720E030E040E85FE36D817E818F8107
:1003400098850E945E0F88232CF481E090E09A87C4
:1003500089873FC020E03FEF4FE757E46D817E8102
:100360008F8198850E94B61018164CF520E030E079
:1003700040E251E469817A818B819C810E94BB10AB
:10038000DC01CB01BC01CD010E94D50FDC01CB010A
:100390009A8789870FC088EC90E09C878B878B8534
:1003A0009C850197F1F79C878B8789859A850197B2
:1003B0009A87898789859A85892B69F714C06D8109
:1003C0007E818F8198850E94D50FDC01CB019A87B1
:1003D000898789859A859E878D878D859E850197DA
:1003E000F1F79E878D8702C00E9462000E949800EC
:1003F0008230D1F30E94860080E090E0AAEFB3E45F
:100400008F87988BA98BBA8B20E030E04AEF54E4B9
:100410006F85788989899A890E94BB10DC01CB019C
:100420008B8B9C8BAD8BBE8B20E030E040E85FE394
:100430006B897C898D899E890E945E0F88232CF4AC
:1004400081E090E0988F8F8B3FC020E03FEF4FE737
:1004500057E46B897C898D899E890E94B610181695
:100460004CF520E030E040E251E46F8578898989DD
:100470009A890E94BB10DC01CB01BC01CD010E9416
:10048000D50FDC01CB01988F8F8B0FC088EC90E0EB
:100490009A8F898F898D9A8D0197F1F79A8F898F1D
:1004A0008F89988D0197988F8F8B8F89988D892B45
:1004B00069F714C06B897C898D899E890E94D50F4C
:1004C000DC01CB01988F8F8B8F89988D9C8F8B8FC0
:1004D0008B8D9C8D0197F1F79C8F8B8F00006C9614
:1004E0000FB6F894DEBF0FBECDBFDF91CF91089558
:1004F000CF93DF93CDB7DEB76C970FB6F894DEBF1E
:100500000FBECDBF0E94740080E090E0AAE7B3E484
:1005100089839A83AB83BC8320E030E04AEF54E4C4
:1005200069817A818B819C810E94BB10DC01CB01A7
:100530008D839E83AF83B88720E030E040E85FE39F
:100540006D817E818F8198850E945E0F88232CF4B7
:1005500081E090E09A8789873FC020E03FEF4FE736
:1005600057E46D817E818F8198850E94B6101816A0
:100570004CF520E030E040E251E469817A818B81E2
:100580009C810E94BB10DC01CB01BC01CD010E940B
:10059000D50FDC01CB019A8789870FC088EC90E0EA
:1005A0009C878B878B859C850197F1F79C878B8730
:1005B00089859A8501979A87898789859A85892B64
:1005C00069F714C06D817E818F8198850E94D50F57
:1005D000DC01CB019A87898789859A859E878D87DB
:1005E0008D859E850197F1F79E878D8702C00E94B9
:1005F00074000E94AA008230D1F30E94860080E03D
:1006000090E0AAEFB3E48F87988BA98BBA8B20E098
:1006100030E04AEF54E46F85788989899A890E948D
:10062000BB10DC01CB018B8B9C8BAD8BBE8B20E098
:1006300030E040E85FE36B897C898D899E890E9468
:100640005E0F88232CF481E090E0988F8F8B3FC061
:1006500020E03FEF4FE757E46B897C898D899E89C5
:100660000E94B61018164CF520E030E040E251E44C
:100670006F85788989899A890E94BB10DC01CB013A
:10068000BC01CD010E94D50FDC01CB01988F8F8B6F
:100690000FC088EC90E09A8F898F898D9A8D019791
:1006A000F1F79A8F898F8F89988D0197988F8F8B0B
:1006B0008F89988D892B69F714C06B897C898D8906
:1006C0009E890E94D50FDC01CB01988F8F8B8F897B
:1006D000988D9C8F8B8F8B8D9C8D0197F1F79C8FC4
:1006E0008B8F00006C960FB6F894DEBF0FBECDBFA7
:1006F000DF91CF910895CF93DF931F92CDB7DEB7EF
:10070000198205C00E94750189818F5F8983898163
:100710008230C0F300000F90DF91CF910895CF9306
:10072000DF93CDB7DEB76C970FB6F894DEBF0FBE80
:10073000CDBF0E943E0080E090E0A8E4B3E48F8744
:10074000988BA98BBA8B20E030E04AEF54E46F8598
:10075000788989899A890E94BB10DC01CB018B8B37
:100760009C8BAD8BBE8B20E030E040E85FE36B8973
:100770007C898D899E890E945E0F88232CF481E0FC
:1007800090E0988F8F8B3FC020E03FEF4FE757E41A
:100790006B897C898D899E890E94B61018164CF54C
:1007A00020E030E040E251E46F85788989899A89B8
:1007B0000E94BB10DC01CB01BC01CD010E94D50F12
:1007C000DC01CB01988F8F8B0FC088EC90E09A8F63
:1007D000898F898D9A8D0197F1F79A8F898F8F89EB
:1007E000988D0197988F8F8B8F89988D892B69F7BA
:1007F00014C06B897C898D899E890E94D50FDC018C
:10080000CB01988F8F8B8F89988D9C8F8B8F8B8D41
:100810009C8D0197F1F79C8F8B8F0E94860080E062
:1008200090E0AAEFB3E489839A83AB83BC8320E092
:1008300030E04AEF54E469817A818B819C810E9487
:10084000BB10DC01CB018D839E83AF83B88720E092
:1008500030E040E85FE36D817E818F8198850E9462
:100860005E0F88232CF481E090E09A8789873FC04F
:1008700020E03FEF4FE757E46D817E818F819885BF
:100880000E94B61018164CF520E030E040E251E42A
:1008900069817A818B819C810E94BB10DC01CB0134
:1008A000BC01CD010E94D50FDC01CB019A8789875D
:1008B0000FC088EC90E09C878B878B859C85019787
:1008C000F1F79C878B8789859A8501979A87898715
:1008D00089859A85892B69F714C06D817E818F8106
:1008E00098850E94D50FDC01CB019A87898789857D
:1008F0009A859E878D878D859E850197F1F79E87C6
:100900008D8700006C960FB6F894DEBF0FBECDBF8A
:10091000DF91CF910895CF93DF9300D000D000D026
:10092000CDB7DEB78D836E831A8219821B821C823B
:100930008D8190916100891B8B838E8190916200E3
:10094000891B8C838D81181664F58E8118164CF5E1
:1009500019820CC01092600002C00E94BC008091FD
:1009600060008823D1F389818F5F898399818C818D
:10097000981784F30E94750119820CC010926000D0
:1009800002C00E94BC00809160008823D1F389815D
:100990008F5F898399818B81981784F30E947802F5
:1009A00030C08D8118166CF18E81181654F10E949A
:1009B0007B038C8189830CC01092600002C00E946E
:1009C000BC00809160008823D1F389818F5F898387
:1009D0008981882389F70E9475018B8189830CC0E6
:1009E0001092600002C00E94BC00809160008823C9
:1009F000D1F389818F5F89838981882389F70E9458
:100A000075018D81809361008E81809362008A815F
:100A100026960FB6F894DEBF0FBECDBFDF91CF9103
:100A20000895CF93DF93CDB7DEB76F970FB6F894E5
:100A3000DEBF0FBECDBF8F8F1A828F8D843008F03E
:100A4000F7C01982EFC00E9474000E94AA00823091
:100A5000D1F380E090E0A8E4B2E4898B9A8BAB8B71
:100A6000BC8B20E030E04AEF54E469897A898B89B5
:100A70009C890E94BB10DC01CB018D8B9E8BAF8BC0
:100A8000B88F20E030E040E85FE36D897E898F8990
:100A9000988D0E945E0F88232CF481E090E09A8F5D
:100AA000898F3FC020E03FEF4FE757E46D897E8993
:100AB0008F89988D0E94B61018164CF520E030E012
:100AC00040E251E469897A898B899C890E94BB1034
:100AD000DC01CB01BC01CD010E94D50FDC01CB01B3
:100AE0009A8F898F0FC088EC90E09C8F8B8F8B8DB5
:100AF0009C8D0197F1F79C8F8B8F898D9A8D019733
:100B00009A8F898F898D9A8D892B69F714C06D8989
:100B10007E898F89988D0E94D50FDC01CB019A8F39
:100B2000898F898D9A8D9E8F8D8F8D8D9E8D01974A
:100B3000F1F79E8F8D8F0E94860080E090E8ABE3F6
:100B4000B5E48B839C83AD83BE8320E030E04AEF25
:100B500054E46B817C818D819E810E94BB10DC01FD
:100B6000CB018F839887A987BA8720E030E040E8DF
:100B70005FE36F81788589859A850E945E0F88235F
:100B80002CF481E090E09C878B873FC020E03FEF12
:100B90004FE757E46F81788589859A850E94B61062
:100BA00018164CF520E030E040E251E46B817C8186
:100BB0008D819E810E94BB10DC01CB01BC01CD0167
:100BC0000E94D50FDC01CB019C878B870FC088EC7E
:100BD00090E09E878D878D859E850197F1F79E8792
:100BE0008D878B859C8501979C878B878B859C85C2
:100BF000892B69F714C06F81788589859A850E9451
:100C0000D50FDC01CB019C878B878B859C85988BCE
:100C10008F878F8598890197F1F7988B8F878981C6
:100C20008F5F898399818F8D981709F00ECF02C04D
:100C300081E08A838A816F960FB6F894DEBF0FBE7B
:100C4000CDBFDF91CF910895CF93DF9300D01F9256
:100C5000CDB7DEB789836A834B8340E06A8189819F
:100C60000E94720641E06B8189810E947206000039
:100C70000F900F900F90DF91CF910895CF93DF9356
:100C800000D01F92CDB7DEB789836A834B8340E0E3
:100C90006B8189810E94720641E06A8189810E948C
:100CA000720600000F900F900F90DF91CF91089582
:100CB000CF93DF9300D01F92CDB7DEB789836A83CD
:100CC0004B8340E06A8189810E94720640E06B811B
:100CD00089810E94720600000F900F900F90DF91A3
:100CE000CF910895CF93DF9300D000D0CDB7DEB77A
:100CF0008A836B834C8319828B81883008F0EBC028
:100D00008C81882309F072C08A81882F90E081301D
:100D1000910521F1823091051CF4892B41F063C0CB
:100D20008230910591F1039709F446C05CC08BE3D2
:100D300090E0FC018081482F8B81282F30E081E0FA
:100D400090E002C0880F991F2A95E2F78095242F22
:100D500028238BE390E0FC012083BFC088E390E070
:100D6000FC018081482F8B81282F30E081E090E0CA
:100D700002C0880F991F2A95E2F78095242F282317
:100D800088E390E0FC012083A8C085E390E0FC01AB
:100D90008081482F8B81282F30E081E090E002C0D5
:100DA000880F991F2A95E2F78095242F282385E341
:100DB00090E0FC01208391C082E390E0FC018081FF
:100DC000482F8B81282F30E081E090E002C0880F0F
:100DD000991F2A95E2F78095242F282382E390E03B
:100DE000FC0120837AC081E0898377C08C818130C7
:100DF00009F06EC08A81882F90E08130910519F149
:100E0000823091051CF4892B41F05FC0823091053E
:100E100081F1039709F443C058C08BE390E0FC01D3
:100E20008081482F8B81282F30E081E090E002C044
:100E3000880F991F2A95E2F7242F282B8BE390E047
:100E4000FC0120834AC088E390E0FC018081482FA8
:100E50008B81282F30E081E090E002C0880F991F3D
:100E60002A95E2F7242F282B88E390E0FC012083C9
:100E700034C085E390E0FC018081482F8B81282FCE
:100E800030E081E090E002C0880F991F2A95E2F7D8
:100E9000242F282B85E390E0FC0120831EC082E3F1
:100EA00090E0FC018081482F8B81282F30E081E089
:100EB00090E002C0880F991F2A95E2F7242F282B73
:100EC00082E390E0FC01208308C081E0898305C0B3
:100ED00081E0898302C081E0898389810F900F902E
:100EE0000F900F90DF91CF910895CF93DF9300D0B3
:100EF0001F92CDB7DEB78A836B8319828A81882FD0
:100F000090E08130910591F0823091051CF4892B9D
:100F100039F01EC08230910579F0039799F018C01E
:100F20008BE390E02B81FC01208314C088E390E0E8
:100F30002B81FC0120830EC085E390E02B81FC0116
:100F4000208308C082E390E02B81FC01208302C053
:100F500081E0898389810F900F900F90DF91CF916D
:100F60000895CF93DF9300D000D01F92CDB7DEB7A6
:100F70008A836B835D834C8319828C819D81892B4D
:100F800009F46FC08B81883008F06BC08A81882F8C
:100F900090E08130910511F1823091051CF4892B8C
:100FA00041F05BC08230910571F1039709F440C0B4
:100FB00054C089E390E0FC018081882F90E02B8170
:100FC000222F30E002C0959587952A95E2F7282FC9
:100FD00021708C819D81FC01208342C086E390E0DA
:100FE000FC018081882F90E02B81222F30E002C00D
:100FF000959587952A95E2F7282F21708C819D8100
:10100000FC0120832DC083E390E0FC018081882FC8
:1010100090E02B81222F30E002C0959587952A958C
:10102000E2F7282F21708C819D81FC01208318C05C
:1010300080E390E0FC018081882F90E02B81222FBB
:1010400030E002C0959587952A95E2F7282F217008
:101050008C819D81FC01208303C081E0898303C0D2
:1010600002C081E0898389810F900F900F900F90CB
:101070000F90DF91CF910895CF93DF9300D000D0F0
:101080001F92CDB7DEB78A836B835D834C838C81DF
:101090009D81AC016B818A810E94B10789838C811B
:1010A0009D81FC018081882331F48C819D8122E027
:1010B000FC0120830BC08C819D81FC0180818130EB
:1010C00029F48C819D8123E0FC01208389810F908C
:1010D0000F900F900F900F90DF91CF910895CF93C5
:1010E000DF93CDB7DEB78AE390E02FE0FC012083E9
:1010F00087E390E028E0FC01208384E390E0FC019A
:10110000108281E390E020E8FC0120838BE390E0F3
:10111000FC01108288E390E0FC01108285E390E0FE
:10112000FC01108282E390E0FC0110820000DF915C
:10113000CF910895CF93DF93CDB7DEB783E590E0ED
:10114000FC01208183E590E02064FC01208383E59D
:1011500090E0FC01208183E590E0277FFC01208363
:101160008CE590E029E6FC01208383E590E0FC011A
:10117000208183E590E02F7CFC01208383E590E0D3
:10118000FC01208183E590E02062FC01208383E55F
:1011900090E0FC01208183E590E0287FFC01208322
:1011A00083E590E0FC01208183E590E02260FC0172
:1011B000208382E590E0FC01108289E590E0FC014B
:1011C000208189E590E02E7FFC01208389E590E075
:1011D000FC01208189E590E02D7FFC012083000047
:1011E000DF91CF910895CF93DF9300D0CDB7DEB7D5
:1011F0008A8319828A818830A0F483E590E0FC011B
:10120000208183E590E0287FFC01208383E590E046
:10121000FC01308183E590E02A81232BFC012083AF
:1012200002C081E0898389810F900F90DF91CF9177
:101230000895CF93DF93CDB7DEB783E590E0FC014F
:10124000208183E590E0287FFC01208323E530E0C6
:1012500083E590E0F9012081FC0120830000DF910B
:10126000CF910895CF93DF931F92CDB7DEB78983D7
:101270008CE590E02981FC01208300000F90DF9134
:10128000CF9108950F931F93CF93DF9300D000D099
:10129000CDB7DEB78A836B834C8319828A8185360A
:1012A00008F0B8C08B81823099F483E590E0FC01AE
:1012B000208183E590E02064FC01208383E590E0B9
:1012C000FC01208183E590E0277FFC01208318C08A
:1012D0008B81843099F483E590E0FC01208183E5E3
:1012E00090E02064FC01208383E590E0FC012081F4
:1012F00083E590E02860FC01208302C081E08983BF
:101300008C81882F90E08530910521F0069709F4B3
:1013100044C07CC083E590E0FC01208183E590E03F
:101320002F7CFC01208383E590E0FC01208183E594
:1013300090E02063FC0120838A81282F30E04FEF6A
:10134000429FC001439F900D1124CC01A0E0B0E06A
:10135000BC01CD010E940410DC01CB0120E030E093
:1013600048EC52E4BC01CD010E94630FDC01CB01CB
:101370009C01AD0160E070E08FE793E40E94F10E04
:10138000DC01CB010CE510E0BC01CD010E94D50FC2
:10139000DC01CB01F80180833FC083E590E0FC01D4
:1013A000208183E590E02F7CFC01208383E590E0A1
:1013B000FC01208183E590E02062FC0120838A818A
:1013C000282F30E04FEF429FC001439F900D112422
:1013D000CC01A0E0B0E0BC01CD010E940410DC0112
:1013E000CB0120E030E048EC52E4BC01CD010E948A
:1013F000630FDC01CB010CE510E0BC01CD010E94C4
:10140000D50FDC01CB01F801808306C081E0898320
:10141000000002C081E0898389810F900F900F90B6
:101420000F90DF91CF911F910F910895CF93DF938C
:1014300000D0CDB7DEB78A8319828A81882F90E0E9
:101440008A30910519F00B9759F014C089E590E0A6
:10145000FC01208189E590E02160FC0120830DC022
:1014600089E590E0FC01208189E590E02260FC01A3
:10147000208303C081E08983000089810F900F9051
:10148000DF91CF910895CF93DF9300D0CDB7DEB732
:101490008A8319828A81882F90E08A30910519F019
:1014A0000B9759F014C089E590E0FC01208189E593
:1014B00090E02E7FFC0120830DC089E590E0FC01C7
:1014C000208189E590E02D7FFC01208303C081E02D
:1014D0008983000089810F900F90DF91CF9108954B
:1014E000CF93DF9300D01F92CDB7DEB79B838A8363
:1014F00019828A819B81892B39F08A819B81909303
:1015000064008093630002C082E0898389810F9028
:101510000F900F90DF91CF910895CF93DF9300D07C
:101520001F92CDB7DEB79B838A8319828A819B8104
:10153000892B39F08A819B819093660080936500A6
:1015400002C082E0898389810F900F900F90DF9114
:10155000CF9108951F920F920FB60F9211242F93DF
:101560003F934F935F936F937F938F939F93AF932B
:10157000BF93EF93FF93CF93DF93CDB7DEB7809107
:10158000630090916400892B31F080916300909109
:101590006400FC0109950000DF91CF91FF91EF916C
:1015A000BF91AF919F918F917F916F915F914F917B
:1015B0003F912F910F900FBE0F901F9018951F9283
:1015C0000F920FB60F9211242F933F934F935F9377
:1015D0006F937F938F939F93AF93BF93EF93FF93FB
:1015E000CF93DF93CDB7DEB7809165009091660011
:1015F000892B31F08091650090916600FC0109957E
:101600000000DF91CF91FF91EF91BF91AF919F913A
:101610008F917F916F915F914F913F912F910F909B
:101620000FBE0F901F901895CF93DF93CDB7DEB705
:1016300085E490E0FC01208185E490E02064FC01D9
:10164000208385E490E0FC01208185E490E0277F01
:10165000FC01208383E490E029E6FC01208385E4FB
:1016600090E0FC01208185E490E02F7CFC01208348
:1016700085E490E0FC01208185E490E02062FC019B
:10168000208385E490E0FC01208185E490E0287FC0
:10169000FC01208385E490E0FC01208185E490E05A
:1016A0002260FC01208384E490E0FC0110820000B1
:1016B000DF91CF9108950F931F93CF93DF9300D0C5
:1016C00000D0CDB7DEB78A836B834C8319828A81C1
:1016D000853608F0B8C08B81823099F485E490E0BB
:1016E000FC01208185E490E02064FC01208385E4F6
:1016F00090E0FC01208185E490E0277FFC012083BD
:1017000018C08B81843099F485E490E0FC0120813D
:1017100085E490E02064FC01208385E490E0FC01F6
:10172000208185E490E02860FC01208302C081E0F4
:1017300089838C81882F90E08530910521F0069770
:1017400009F444C07CC085E490E0FC01208185E47C
:1017500090E02F7CFC01208385E490E0FC01208157
:1017600085E490E02063FC0120838A81282F30E00B
:101770004FEF429FC001439F900D1124CC01A0E088
:10178000B0E0BC01CD010E940410DC01CB0120E0DF
:1017900030E048EC52E4BC01CD010E94630FDC0153
:1017A000CB019C01AD0160E070E08FE793E40E9403
:1017B000F10EDC01CB0103E410E0BC01CD010E947D
:1017C000D50FDC01CB01F80180833FC085E490E0B8
:1017D000FC01208185E490E02F7CFC01208385E4DE
:1017E00090E0FC01208185E490E02062FC012083F0
:1017F0008A81282F30E04FEF429FC001439F900D18
:101800001124CC01A0E0B0E0BC01CD010E94041085
:10181000DC01CB0120E030E048EC52E4BC01CD011A
:101820000E94630FDC01CB0103E410E0BC01CD0199
:101830000E94D50FDC01CB01F801808306C081E056
:101840008983000002C081E0898389810F900F9015
:101850000F900F90DF91CF911F910F910895CF932B
:10186000DF9300D0CDB7DEB78A8319828A818830B2
:10187000A0F485E490E0FC01208185E490E0287FDD
:10188000FC01208385E490E0FC01308185E490E058
:101890002A81232BFC01208302C081E08983898176
:1018A0000F900F90DF91CF910895CF93DF93CDB735
:1018B000DEB785E490E0FC01208185E490E0287F9C
:1018C000FC01208325E430E085E490E0F9012081EB
:1018D000FC0120830000DF91CF910895CF93DF9327
:1018E0001F92CDB7DEB7898383E490E02981FC01A4
:1018F000208300000F90DF91CF910895CF93DF9365
:1019000000D0CDB7DEB78A8319828A81882F90E014
:101910008A30910519F00B9759F014C089E590E0D1
:10192000FC01208189E590E02064FC0120830DC04A
:1019300089E590E0FC01208189E590E02068FC01C8
:10194000208303C081E08983000089810F900F907C
:10195000DF91CF910895CF93DF9300D0CDB7DEB75D
:101960008A8319828A81882F90E08A30910519F044
:101970000B9759F014C089E590E0FC01208189E5BE
:1019800090E02F7BFC0120830DC089E590E0FC01F5
:10199000208189E590E02F77FC01208303C081E05E
:1019A0008983000089810F900F90DF91CF91089576
:1019B000CF93DF9300D01F92CDB7DEB79B838A838E
:1019C00019828A819B81892B39F08A819B8190932E
:1019D00068008093670002C082E0898389810F904C
:1019E0000F900F90DF91CF910895CF93DF9300D0A8
:1019F0001F92CDB7DEB79B838A8319828A819B8130
:101A0000892B39F08A819B8190936A0080936900C9
:101A100002C082E0898389810F900F900F90DF913F
:101A2000CF9108951F920F920FB60F9211242F930A
:101A30003F934F935F936F937F938F939F93AF9356
:101A4000BF93EF93FF93CF93DF93CDB7DEB7809132
:101A5000670090916800892B31F080916700909128
:101A60006800FC0109950000DF91CF91FF91EF9193
:101A7000BF91AF919F918F917F916F915F914F91A6
:101A80003F912F910F900FBE0F901F9018951F92AE
:101A90000F920FB60F9211242F933F934F935F93A2
:101AA0006F937F938F939F93AF93BF93EF93FF9326
:101AB000CF93DF93CDB7DEB78091690090916A0034
:101AC000892B31F08091690090916A00FC010995A1
:101AD0000000DF91CF91FF91EF91BF91AF919F9166
:101AE0008F917F916F915F914F913F912F910F90C7
:101AF0000FBE0F901F901895CF93DF93CDB7DEB731
:101B0000AA970FB6F894DEBF0FBECDBF0E946F0834
:101B10000E949A080E94140B0E94860080E090E0C8
:101B2000AAEFB4E48D8F9E8FAF8FB8A320E030E092
:101B30004AEF54E46D8D7E8D8F8D98A10E94BB106D
:101B4000DC01CB0189A39AA3ABA3BCA320E030E0C6
:101B500040E85FE369A17AA18BA19CA10E945E0F7E
:101B600088232CF481E090E09EA38DA33FC020E069
:101B70003FEF4FE757E469A17AA18BA19CA10E9496
:101B8000B61018164CF520E030E040E251E46D8DBF
:101B90007E8D8F8D98A10E94BB10DC01CB01BC0112
:101BA000CD010E94D50FDC01CB019EA38DA30FC0F8
:101BB00088EC90E098A78FA38FA198A50197F1F7E3
:101BC00098A78FA38DA19EA101979EA38DA38DA100
:101BD0009EA1892B69F714C069A17AA18BA19CA150
:101BE0000E94D50FDC01CB019EA38DA38DA19EA1E8
:101BF0009AA789A789A59AA50197F1F79AA789A716
:101C000062E081E00E948B040E94500080E090E03E
:101C1000AAEFB3E48F87988BA98BBA8B20E030E0D2
:101C20004AEF54E46F85788989899A890E94BB10AC
:101C3000DC01CB018B8B9C8BAD8BBE8B20E030E02D
:101C400040E85FE36B897C898D899E890E945E0FE5
:101C500088232CF481E090E0988F8F8B3FC020E0A8
:101C60003FEF4FE757E46B897C898D899E890E94FD
:101C7000B61018164CF520E030E040E251E46F85D4
:101C8000788989899A890E94BB10DC01CB01BC014B
:101C9000CD010E94D50FDC01CB01988F8F8B0FC037
:101CA00088EC90E09A8F898F898D9A8D0197F1F752
:101CB0009A8F898F8F89988D0197988F8F8B8F89B5
:101CC000988D892B69F714C06B897C898D899E89D1
:101CD0000E94D50FDC01CB01988F8F8B8F89988D57
:101CE0009C8F8B8F8B8D9C8D0197F1F79C8F8B8FA9
:101CF0000E94860080E090E0AAEFB4E489839A8392
:101D0000AB83BC8320E030E04AEF54E469817A8100
:101D10008B819C810E94BB10DC01CB018D839E8353
:101D2000AF83B88720E030E040E85FE36D817E81DB
:101D30008F8198850E945E0F88232CF481E090E0CB
:101D40009A8789873FC020E03FEF4FE757E46D81D6
:101D50007E818F8198850E94B61018164CF520E080
:101D600030E040E251E469817A818B819C810E945C
:101D7000BB10DC01CB01BC01CD010E94D50FDC0101
:101D8000CB019A8789870FC088EC90E09C878B876E
:101D90008B859C850197F1F79C878B8789859A8530
:101DA00001979A87898789859A85892B69F714C055
:101DB0006D817E818F8198850E94D50FDC01CB01DA
:101DC0009A87898789859A859E878D878D859E8547
:101DD0000197F1F79E878D8760E080E00E948B0479
:101DE0009BCE5058BB27AA270E94090F0C947C1049
:101DF0000E946E1038F00E94751020F039F49F3F59
:101E000019F426F40C946B100EF4E095E7FB0C9497
:101E10006510E92F0E948D1058F3BA1762077307F7
:101E20008407950720F079F4A6F50C94AF100EF412
:101E3000E0950B2EBA2FA02D0B01B90190010C01DA
:101E4000CA01A0011124FF27591B99F0593F50F4F2
:101E5000503E68F11A16F040A22F232F342F44274A
:101E6000585FF3CF469537952795A795F040539542
:101E7000C9F77EF41F16BA0B620B730B840BBAF012
:101E80009150A1F0FF0FBB1F661F771F881FC2F77D
:101E90000EC0BA0F621F731F841F48F48795779591
:101EA0006795B795F7959E3F08F0B0CF9395880F4B
:101EB00008F09927EE0F9795879508950E94411095
:101EC00008F481E008950E94770F0C947C100E9422
:101ED000751058F00E946E1040F029F45F3F29F011
:101EE0000C94651051110C94B0100C946B100E945E
:101EF0008D1068F39923B1F3552391F3951B550B7E
:101F0000BB27AA2762177307840738F09F5F5F4FCC
:101F1000220F331F441FAA1FA9F335D00E2E3AF00B
:101F2000E0E832D091505040E695001CCAF72BD023
:101F3000FE2F29D0660F771F881FBB1F2617370774
:101F40004807AB07B0E809F0BB0B802DBF01FF27A6
:101F500093585F4F3AF09E3F510578F00C9465100E
:101F60000C94B0105F3FE4F3983ED4F386957795D8
:101F70006795B795F7959F5FC9F7880F911D96955F
:101F8000879597F90895E1E0660F771F881FBB1FBB
:101F9000621773078407BA0720F0621B730B840B68
:101FA000BA0BEE1F88F7E09508950E94951088F00F
:101FB0009F5798F0B92F9927B751B0F0E1F0660F0D
:101FC000771F881F991F1AF0BA95C9F714C0B1304E
:101FD00091F00E94AF10B1E008950C94AF10672FFC
:101FE000782F8827B85F39F0B93FCCF3869577957D
:101FF0006795B395D9F73EF4909580957095619566
:102000007F4F8F4F9F4F0895E89409C097FB3EF490
:1020100090958095709561957F4F8F4F9F4F992335
:10202000A9F0F92F96E9BB279395F69587957795B3
:102030006795B795F111F8CFFAF4BB0F11F460FF73
:102040001BC06F5F7F4F8F4F9F4F16C0882311F0CB
:1020500096E911C0772321F09EE8872F762F05C0DF
:10206000662371F096E8862F70E060E02AF09A957A
:10207000660F771F881FDAF7880F9695879597F96F
:102080000895990F0008550FAA0BE0E8FEEF161609
:102090001706E807F907C0F012161306E407F5075C
:1020A00098F0621B730B840B950B39F40A2661F0D0
:1020B000232B242B252B21F408950A2609F4A14073
:1020C000A6958FEF811D811D089597F99F6780E880
:1020D00070E060E008959FEF80EC089500240A947A
:1020E0001616170618060906089500240A941216F3
:1020F0001306140605060895092E0394000C11F426
:10210000882352F0BB0F40F4BF2B11F460FF04C0D2
:102110006F5F7F4F8F4F9F4F089557FD9058440F2B
:10212000551F59F05F3F71F04795880F97FB991F36
:1021300061F09F3F79F087950895121613061406F3
:10214000551FF2CF4695F1DF08C016161706180680
:10215000991FF1CF86957105610508940895E8945B
:10216000BB2766277727CB0197F908950E94411076
:1021700008F48FEF08950E94CE100C947C100E94FA
:102180006E1038F00E94751020F0952311F00C9419
:1021900065100C946B1011240C94B0100E948D10DB
:1021A00070F3959FC1F3950F50E0551F629FF001AA
:1021B000729FBB27F00DB11D639FAA27F00DB11DC3
:1021C000AA1F649F6627B00DA11D661F829F22274C
:1021D000B00DA11D621F739FB00DA11D621F839FD3
:1021E000A00D611D221F749F3327A00D611D231FA9
:1021F000849F600D211D822F762F6A2F11249F57F7
:1022000050409AF0F1F088234AF0EE0FFF1FBB1FF9
:10221000661F771F881F91505040A9F79E3F5105B8
:1022200080F00C9465100C94B0105F3FE4F3983E7E
:10223000D4F3869577956795B795F795E7959F5F62
:10224000C1F7FE2B880F911D9695879597F90895F4
:04225000F894FFCF30
:00000001FF
